:020000040800F2
:10000000901E002001010008150C000801050008E1
:100010001D050008610300080D1200080000000023
:10002000000000000000000000000000A10E000819
:10003000D103000800000000170C0008B50F0008ED
:100040001B0100081B0100081B0100081B01000820
:100050001B0100081B0100081B0100081B01000810
:100060001B0100081B0100081B0100081B01000800
:100070001B0100081B0100081B0100081B010008F0
:100080001B0100081B0100081B0100081B010008E0
:100090001B0100081B0100081B0100081B010008D0
:1000A0001B0100081B0100081B0100081B010008C0
:1000B0001B0100081B0100081B0100081B010008B0
:1000C0001B0100081B0100081B0100081B010008A0
:1000D0001B0100081B0100081B0100081B01000890
:1000E0001B0100081B0100081B010008DFF80CD0F1
:1000F00000F018F80048004751120008901E002038
:100100000648804706480047FEE7FEE7FEE7FEE7B1
:10011000FEE7FEE7FEE7FEE7FEE7FEE7C50F0008A5
:10012000ED000008064C074D06E0E06840F00103D2
:1001300094E8070098471034AC42F6D3FFF7DAFF93
:10014000081300082813000870B58D1810F8014B2B
:1001500014F0030201D110F8012B231106D110F87D
:10016000013B03E010F8016B01F8016B521EF9D15D
:10017000ABB110F8012B04F00C048A1A0C2C03D03C
:10018000A2EB84129B1C08E010F8014BA2EB0422A6
:10019000F8E712F8014B01F8014B5B1EF9D5A942B3
:1001A000D4D3002070BD000000B58BB001210846FB
:1001B00000F032FD0F4800900F480190002002909F
:1001C0004FF496700390002004908020059000204A
:1001D0000690079020200890002009900A90694618
:1001E000064800F0CAF80121044800F0BAF80BB044
:1001F00000BD0000043801405E1900205800024094
:1002000008B50121082000F027FD684600F070F9CC
:100210004FF4F070ADF8000010208DF803000320BB
:100220008DF8020069461C4800F0D3F80121042033
:1002300000F012FD684600F05BF90620ADF8000002
:1002400010208DF8030003208DF802006946134842
:1002500000F0BFF80121052000F0FEFC4FF4007013
:10026000ADF8000018208DF8030003208DF802007F
:1002700069460A4800F0ADF84FF48060ADF8000020
:1002800004208DF8030003208DF80200694603481E
:1002900000F09FF808BD0000000C0140000801407C
:1002A00010B5FFF7ADFF00F033F800F003F8FFF7EB
:1002B0007BFF10BD70B5042000F068FE4FF4B471F0
:1002C000B1F1807F00D31DE021F07F40401E4FF050
:1002D000E022506150170F22002807DA13071D0E85
:1002E000094B00F00F04241F1D5503E013071C0EDB
:1002F000064B1C5400BF00204FF0E0229061072005
:10030000106100BF70BD000018ED00E000E400E0E7
:100310001FB50121880300F09FFC104800F0AAFEE1
:100320004FF4164000900020ADF80400ADF8060030
:10033000ADF808000C20ADF80A000020ADF80C0064
:100340006946064800F0F2FE0121044800F07CFEF8
:1003500001224021014800F083FE1FBD003801400A
:10036000704721B1026842F00102026004E00268B5
:100370004FF6FE731A400260704710B50022026803
:1003800047F6F0739A430C6A8B6823430C69234346
:100390004C6923438C692343CC6923434C6A234330
:1003A0008C6A23431A430260CB6843600B68836006
:1003B0004B68C36010BD0000002003E00021034A29
:1003C0001154401CB0F5967FF8DB70475E19002091
:1003D00070472DE9F0410246002500260020002349
:1003E0000024002791F803C00CF00F0591F803C01A
:1003F0000CF0100CBCF1000F03D091F802C04CEAD5
:10040000050591F800C0BCF1000F31D01468002040
:100410002BE04FF0010C0CFA00F3B1F800C00CEA2D
:1004200003069E4220D183004FF00F0C0CFA03F715
:10043000BC4305FA03FC4CEA040491F803C0BCF188
:10044000280F06D14FF0010C0CFA00FCC2F814C0C2
:100450000AE091F803C0BCF1480F05D14FF0010C40
:100460000CFA00FCC2F810C0401C0828D1D314605C
:10047000B1F800C0BCF1FF0F34DD546800202EE05D
:1004800000F1080C4FF0010808FA0CF3B1F800C0B5
:100490000CEA03069E4221D183004FF00F0C0CFAA8
:1004A00003F7BC4305FA03FC4CEA040491F803C0CB
:1004B000BCF1280F05D100F1080C08FA0CF8C2F8BD
:1004C000148091F803C0BCF1480F07D100F1080C6B
:1004D0004FF0010808FA0CF8C2F81080401C0828F8
:1004E000CED35460BDE8F08141617047016170472F
:1004F0004FF6FF710180022181700421C1707047A5
:1005000070470000002000BF03E0FF21024A1154A1
:10051000401C9628F9DB7047C8180020704700007F
:100520002DE9F04104460027B846022C01D0042CE6
:1005300003D173480078012807D0072C01D0092C7B
:1005400007D16F484078012803D16227B8466D4D26
:100550006D4E032C03D16A480078012805D0082C81
:1005600008D167484078012804D16227B846674D12
:10057000674E52E0022C05D0042C03D0072C01D08A
:10058000092C0AD15E48407838B95D48007820B916
:100590006C27B8465F4D604E3FE0032C01D0082C1D
:1005A0000AD15748407838B95548007820B96C27A7
:1005B000B8465A4D5A4E30E0022C01D0042C06D1D8
:1005C0004F48007818B94E48407801280AD0072CC7
:1005D00001D0092C0BD14A48407840B948480078EE
:1005E000012804D1B727B8464E4D4F4E15E0032CD5
:1005F00006D14348007818B941484078012808D00E
:10060000082C0AD13E48407838B93D480078012886
:1006100003D1B727B846454D454E0A2C6CD2DFE8CA
:1006200004F00514232A313847565D64002034490C
:10063000087002213F48FFF757FF3F490988C82249
:1006400001FB02F000F0F2FD57E001202C49087098
:1006500002213848FFF74AFF38490988C82201FBC0
:1006600002F000F0E3FD48E043463A4631462846B2
:1006700000F066F841E043463A463146284600F02D
:10068000C3F83AE043463A463146284600F02CF992
:1006900033E000201A49487004212648FFF724FF60
:1006A00025490988C82201FB02F000F0BFFD24E0C3
:1006B00001201349487004211E48FFF717FF1F4906
:1006C0000988C82201FB02F000F0B0FD15E04346A6
:1006D0003A463146284600F06BF90EE043463A466A
:1006E0003146284600F0C6F907E043463A4631460F
:1006F000284600F02DFA00E000BF00BFBDE8F08101
:100700001400002070000020F80100208003002069
:10071000080500209006002040080020F009002075
:10072000A00B0020500D00202C10002008130020EA
:10073000E415002000080140C2180020C018002065
:100740002DE9F04705468846164699464FF4C87786
:100750004FF480712A48FFF7C9FE142000F066FDAF
:10076000002410E080212648FFF7C0FE55F8240041
:1007700000F05CFD80212248FFF7B6FE55F824000A
:1007800000F054FD641CB442ECDB344612E08021DE
:100790001B48FFF7ABFE711E55F8210000F046FD27
:1007A00080211748FFF7A0FE711E55F8210000F0C8
:1007B0003DFD641CA7EB0900A042E8DCA7EB09049F
:1007C00014E080210E48FFF791FE391B491E58F8AE
:1007D000210000F02BFD80210948FFF785FE391B21
:1007E000491E58F8210000F021FD641CBC42E8DBE2
:1007F00004484088401C03494880BDE8F087000059
:10080000000C0140140000202DE9F0470546884601
:10081000164699464FF448773048007800F00100BA
:1008200028B94FF480712E48FFF760FE04E04FF4C2
:1008300080712B48FFF758FE142000F0F7FC0024CD
:1008400010E080212648FFF751FE55F8240000F003
:10085000EDFC80212248FFF747FE55F8240000F008
:10086000E5FC641CB442ECDB344612E080211C48F9
:10087000FFF73CFE711E55F8210000F0D7FC8021E7
:100880001748FFF731FE711E55F8210000F0CEFC2D
:10089000641CA7EB0900A042E8DCA7EB090414E004
:1008A00080210F48FFF722FE391B491E58F821000E
:1008B00000F0BCFC80210A48FFF716FE391B491ED8
:1008C00058F8210000F0B2FC641CBC42E8DB05488B
:1008D0004088801C03494880BDE8F08768000020FC
:1008E000000C0140140000202DE9F0470546884621
:1008F000164699464FF4C8774FF480712A48FFF79F
:10090000F3FD142000F092FC002410E08021264822
:10091000FFF7ECFD55F8240000F088FC8021224808
:10092000FFF7E2FD55F8240000F080FC641CB4429F
:10093000ECDB344612E080211B48FFF7D7FD711E27
:1009400055F8210000F072FC80211748FFF7CCFD1C
:10095000711E55F8210000F069FC641CA7EB09002A
:10096000A042E8DCA7EB090414E080210E48FFF761
:10097000BDFD391B491E58F8210000F057FC8021AD
:100980000948FFF7B1FD391B491E58F8210000F056
:100990004DFC641CBC42E8DB04484088C01C034991
:1009A0004880BDE8F0870000000C014014000020E2
:1009B0002DE9F04705468846164699464FF4C87714
:1009C00040212A48FFF792FD142000F02FFC00245C
:1009D00010E020212548FFF789FD55F8240000F09C
:1009E00025FC20212148FFF77FFD55F8240000F069
:1009F0001DFC641CB442ECDB344612E020211B4891
:100A0000FFF774FD711E55F8210000F00FFC202146
:100A10001648FFF769FD711E55F8210000F006FC2D
:100A2000641CA7EB0900A042E8DCA7EB090414E072
:100A300020210E48FFF75AFD391B491E58F82100A6
:100A400000F0F4FB20210948FFF74EFD391B491E39
:100A500058F8210000F0EAFB641CBC42E8DB0448C3
:100A60008088401C02498880BDE8F087000C014066
:100A7000140000202DE9F0470546884616469946A1
:100A80004FF448772F48007800F0010020B940214A
:100A90002D48FFF72BFD03E040212B48FFF724FDF5
:100AA000142000F0C3FB002410E020212648FFF7AB
:100AB0001DFD55F8240000F0B9FB20212248FFF766
:100AC00013FD55F8240000F0B1FB641CB442ECDBCC
:100AD000344612E020211C48FFF708FD711E55F82E
:100AE000210000F0A3FB20211748FFF7FDFC711E39
:100AF00055F8210000F09AFB641CA7EB0900A04206
:100B0000E8DCA7EB090414E020210F48FFF7EEFC16
:100B1000391B491E58F8210000F088FB20210A48A3
:100B2000FFF7E2FC391B491E58F8210000F07EFB5C
:100B3000641CBC42E8DB05488088801C034988802F
:100B4000BDE8F08768000020000C01401400002080
:100B50002DE9F04705468846164699464FF4C87772
:100B600040212A48FFF7C0FC142000F05FFB00245E
:100B700010E020212548FFF7B9FC55F8240000F0CB
:100B800055FB20212148FFF7AFFC55F8240000F069
:100B90004DFB641CB442ECDB344612E020211B48C0
:100BA000FFF7A4FC711E55F8210000F03FFB202147
:100BB0001648FFF799FC711E55F8210000F036FB2E
:100BC000641CA7EB0900A042E8DCA7EB090414E0D1
:100BD00020210E48FFF78AFC391B491E58F82100D6
:100BE00000F024FB20210948FFF77EFC391B491E39
:100BF00058F8210000F01AFB641CBC42E8DB0448F2
:100C00008088C01C02498880BDE8F087000C014044
:100C1000140000207047704729B1064A5269024308
:100C2000044B5A6104E0034A52698243014B5A6102
:100C3000704700000010024029B1064A12690243C1
:100C4000044B1A6104E0034A12698243014B1A61A2
:100C5000704700000010024029B1064A9269024321
:100C6000044B9A6104E0034A92698243014B9A6102
:100C7000704700000010024029B1064AD2680243C2
:100C8000044BDA6004E0034AD2688243014BDA6025
:100C9000704700000010024030B5002100220024FF
:100CA00000232D4D6D6805F00C0121B1042905D0FC
:100CB000082923D105E0294D056022E0274D056074
:100CC0001FE0254D6D6805F47012234D6D6805F425
:100CD0008034022505EB92421CB9214D5543056035
:100CE0000BE01D4D6D6805F400351DB11C4D5543DD
:100CF000056002E0194D5543056002E0174D05609F
:100D000000BF00BF144D6D6805F0F0010909154DD5
:100D10006B5C0568DD4045600F4D6D6805F4E06172
:100D2000090A104D6B5C4568DD4085600A4D6D68B1
:100D300005F46051C90A0B4D6B5C4568DD40C56028
:100D4000054D6D6805F44041890B074D6B5CC56826
:100D5000B5FBF3F5056130BD0010024000127A00CA
:100D600000093D00000000201000002000210022AA
:100D700000BF28E01648405CAA2822D1144B01F19C
:100D80009500185CBB281CD1481C185CFF2801D1B9
:100D90000120704700220FE08818401C0C4B185CA3
:100DA000BB2800D10AE08818401C094B185C40B2EF
:100DB000084B9854501C82B2942AEDDB00BF0220ED
:100DC000E7E7481C81B29629D4DD0020E1E7000066
:100DD0005E190020C818002010B530494888C11796
:100DE00000EB91718910A0EB81012C4A51801146D2
:100DF0008888C11700EB91718910A0EB8101918067
:100E000010464088012807D1FFF78AFB0420FFF72E
:100E100087FB0020FFF784FB20484088032808D187
:100E20000120FFF77DFB0220FFF77AFB0020FFF790
:100E300077FB1A488088012808D10620FFF770FB4D
:100E40000920FFF76DFB0520FFF76AFB1348808838
:100E5000032808D10620FFF763FB0720FFF760FB9C
:100E60000520FFF75DFB0D484088022808D10120CE
:100E7000FFF756FB0320FFF753FB0020FFF750FB63
:100E800006488088022808D10620FFF749FB082081
:100E9000FFF746FB0520FFF743FB10BD14000020C1
:100EA000704710B500F002F810BD00000CB500202E
:100EB000019000903348006840F480303149086068
:100EC00000BF3048006800F4003000900198401CDA
:100ED0000190009818B90198B0F5A06FF1D1294898
:100EE000006800F4003010B10120009001E0002003
:100EF00000900098012843D12348006840F010007A
:100F0000214908600846006820F003000860084690
:100F1000006840F0020008601A48406819494860BB
:100F20000846406848600846406840F48060486071
:100F30000846406820F47C1048600846406840F449
:100F4000E81048600846006840F08070086000BF04
:100F50000C48006800F000700028F9D0094840688B
:100F600020F00300074948600846406840F002004E
:100F7000486000BF0348406800F00C000828F9D121
:100F80000CBD00000010024000200240042808D1DF
:100F90004FF0E021096941F004014FF0E0221161B6
:100FA00007E04FF0E021096921F004014FF0E02251
:100FB0001161704702480068401C01490860704791
:100FC0006800002010B51348006840F00100114986
:100FD000086008464068104908400E4948600846C5
:100FE00000680E4908400B4908600846006820F474
:100FF000802008600846406820F4FE0048604FF4F6
:101000001F008860FFF74DFF4FF000600449086043
:1010100010BD0000001002400000FFF8FFFFF6FEC8
:1010200008ED00E070B504460D462946204600F064
:10103000E9F800BF4021034800F06AF80028F9D021
:1010400070BD00000038014021B1828942F4005295
:10105000828104E082894DF6FF731A4082817047D5
:101060001AB1838A0B43838202E0838A8B43838293
:101070007047000010B504462048844209D1012180
:101080008803FFF7F9FD00214FF48040FFF7F4FDDE
:1010900032E01B48844209D101214804FFF7CCFD0E
:1010A00000214FF40030FFF7C7FD25E015488442CA
:1010B00009D101218804FFF7BFFD00214FF48020F2
:1010C000FFF7BAFD18E01048844209D10121C80495
:1010D000FFF7B2FD00214FF40020FFF7ADFD0BE05C
:1010E0000A48844208D101210805FFF7A5FD002127
:1010F0004FF48010FFF7A0FD10BD00000038014044
:101100000044004000480040004C004000500040B7
:1011100002460020B1F5007F00D100BF13880B40CC
:101120000BB1012000E00020704700002DE9F047DE
:1011300086B005460E460024A24600BFA146002701
:10114000B08900B100BF2F462C8A4CF6FF700440D6
:10115000F08804432C82AC894EF6F3100440B0882A
:1011600031890843718908430443AC81AC8A4FF646
:10117000FF400440B0890443AC8201A8FFF78CFD16
:101180001F48874202D1DDF810A001E0DDF80CA075
:10119000A88900F4004040B10AEBCA0000EB0A1035
:1011A00031684900B0FBF1F807E00AEBCA0000EB38
:1011B0000A1031688900B0FBF1F86420B8FBF0F048
:1011C00004012009642101FB1089A88900F4004072
:1011D00040B1322000EBC900B0FBF1F000F0070095
:1011E000044308E0322000EB09106421B0FBF1F069
:1011F00000F00F0004432C8106B0BDE8F08700002A
:1012000000380140C1F3080282807047704702E055
:1012100008C8121F08C1002AFAD170477047002081
:1012200001E001C1121F002AFBD17047064A126873
:101230008118064A12680244044B1A6000BF024A31
:1012400012688A42FBD37047680000206C000020BF
:101250000025FFF725F8FFF7AFF800202749487071
:1012600008704AE0FFF74EF9FFF780FD0446002CB6
:1012700043D0012C20D10620FFF752F90420FFF7BC
:101280004FF90520FFF74CF90120FFF749F902203B
:10129000FFF746F90020FFF743F9CC211848FFF784
:1012A000C1FECC211648FFF7BDFECC211448FFF744
:1012B000B9FEFFF781F820E0022C1ED1002509E0DD
:1012C00010484057401C00B906E00E49485DFFF742
:1012D00027F96D1C962DF3DB00BFDD210848FFF7D1
:1012E000A1FEDD210648FFF79DFEDD210448FFF742
:1012F00099FEFFF771FDFFF75FF8B3E714000020D8
:1013000000380140C8180020281300080000002001
:10131000C81800004801000818150008C818002067
:10132000C80500001E12000812000120050102037A
:101330000404200906070809020406081410110015
:10134000000A030603050901070200060405080454
:10135000200F040701070003010900060703050326
:101360000D120422100B01020800080603070507EE
:101370003010050705090318312130040803013B2B
:1013800022070E5154100400005D04124B04123F5A
:1013900004123704123204122D04122A04122704F4
:1013A000122404122204122104121F04121E041219
:1013B0001C04121B04121A045219041218041217E6
:1013C0000452160452150452140492130492120487
:1013D000921104D2100402110F0402150E04021916
:1013E0000D0402250C04022D0B0402350A045209D7
:1013F0000492080405FF8805FF8805FF8805FF881B
:10140000059288165B88164988163E881636881617
:101410003088162C881629881626885E231C065EBE
:10142000201C0606111D88052684054E80053E7C7D
:101430000D620C060D2E3406011E0405FFB005FFDB
:10144000B005FFB005FFB005FFB09D10055E60C49C
:10145000061257041253041250041E4D5C08164A1B
:10146000C81248041246041244041242045E40E8C2
:1014700006123D04123B04123A045E38180D2DFC8E
:10148000061235041234045E33280D5E3110075203
:101490002F045E2E3C0D5E2D2407522B045E2A3055
:1014A000072104522804522704922604522504924C
:1014B0002404922304922204922104D22004D21FF5
:1014C00004D21E0402111D0402111C0402151B0487
:1014D00002191A040219190402211804022117041E
:1014E00002291604022D15040239140402411304C2
:1014F0000229120409FFDC09FFDC09FFDC09FFDC1B
:1015000009FFDC09FFDC09FFDC09FFDC098ADC3AA2
:0815100028CE030000000000DA
:04000005080000ED02
:00000001FF
